{
  "contractName": "ImageNFT",
  "abi": [
    {
      "inputs": [
        {
          "internalType": "string",
          "name": "_name",
          "type": "string"
        },
        {
          "internalType": "string",
          "name": "_symbol",
          "type": "string"
        }
      ],
      "stateMutability": "nonpayable",
      "type": "constructor"
    },
    {
      "anonymous": false,
      "inputs": [
        {
          "indexed": true,
          "internalType": "address",
          "name": "owner",
          "type": "address"
        },
        {
          "indexed": true,
          "internalType": "address",
          "name": "approved",
          "type": "address"
        },
        {
          "indexed": true,
          "internalType": "uint256",
          "name": "tokenId",
          "type": "uint256"
        }
      ],
      "name": "Approval",
      "type": "event"
    },
    {
      "anonymous": false,
      "inputs": [
        {
          "indexed": true,
          "internalType": "address",
          "name": "owner",
          "type": "address"
        },
        {
          "indexed": true,
          "internalType": "address",
          "name": "operator",
          "type": "address"
        },
        {
          "indexed": false,
          "internalType": "bool",
          "name": "approved",
          "type": "bool"
        }
      ],
      "name": "ApprovalForAll",
      "type": "event"
    },
    {
      "anonymous": false,
      "inputs": [
        {
          "indexed": true,
          "internalType": "address",
          "name": "from",
          "type": "address"
        },
        {
          "indexed": true,
          "internalType": "address",
          "name": "to",
          "type": "address"
        },
        {
          "indexed": true,
          "internalType": "uint256",
          "name": "tokenId",
          "type": "uint256"
        }
      ],
      "name": "Transfer",
      "type": "event"
    },
    {
      "inputs": [
        {
          "internalType": "address",
          "name": "to",
          "type": "address"
        },
        {
          "internalType": "uint256",
          "name": "tokenId",
          "type": "uint256"
        }
      ],
      "name": "approve",
      "outputs": [],
      "stateMutability": "nonpayable",
      "type": "function"
    },
    {
      "inputs": [
        {
          "internalType": "address",
          "name": "owner",
          "type": "address"
        }
      ],
      "name": "balanceOf",
      "outputs": [
        {
          "internalType": "uint256",
          "name": "",
          "type": "uint256"
        }
      ],
      "stateMutability": "view",
      "type": "function"
    },
    {
      "inputs": [
        {
          "internalType": "uint256",
          "name": "tokenId",
          "type": "uint256"
        }
      ],
      "name": "getApproved",
      "outputs": [
        {
          "internalType": "address",
          "name": "",
          "type": "address"
        }
      ],
      "stateMutability": "view",
      "type": "function"
    },
    {
      "inputs": [
        {
          "internalType": "uint256",
          "name": "",
          "type": "uint256"
        }
      ],
      "name": "images",
      "outputs": [
        {
          "internalType": "string",
          "name": "name",
          "type": "string"
        },
        {
          "internalType": "string",
          "name": "url",
          "type": "string"
        }
      ],
      "stateMutability": "view",
      "type": "function"
    },
    {
      "inputs": [
        {
          "internalType": "address",
          "name": "owner",
          "type": "address"
        },
        {
          "internalType": "address",
          "name": "operator",
          "type": "address"
        }
      ],
      "name": "isApprovedForAll",
      "outputs": [
        {
          "internalType": "bool",
          "name": "",
          "type": "bool"
        }
      ],
      "stateMutability": "view",
      "type": "function"
    },
    {
      "inputs": [],
      "name": "name",
      "outputs": [
        {
          "internalType": "string",
          "name": "",
          "type": "string"
        }
      ],
      "stateMutability": "view",
      "type": "function"
    },
    {
      "inputs": [
        {
          "internalType": "uint256",
          "name": "tokenId",
          "type": "uint256"
        }
      ],
      "name": "ownerOf",
      "outputs": [
        {
          "internalType": "address",
          "name": "",
          "type": "address"
        }
      ],
      "stateMutability": "view",
      "type": "function"
    },
    {
      "inputs": [
        {
          "internalType": "address",
          "name": "from",
          "type": "address"
        },
        {
          "internalType": "address",
          "name": "to",
          "type": "address"
        },
        {
          "internalType": "uint256",
          "name": "tokenId",
          "type": "uint256"
        }
      ],
      "name": "safeTransferFrom",
      "outputs": [],
      "stateMutability": "nonpayable",
      "type": "function"
    },
    {
      "inputs": [
        {
          "internalType": "address",
          "name": "from",
          "type": "address"
        },
        {
          "internalType": "address",
          "name": "to",
          "type": "address"
        },
        {
          "internalType": "uint256",
          "name": "tokenId",
          "type": "uint256"
        },
        {
          "internalType": "bytes",
          "name": "data",
          "type": "bytes"
        }
      ],
      "name": "safeTransferFrom",
      "outputs": [],
      "stateMutability": "nonpayable",
      "type": "function"
    },
    {
      "inputs": [
        {
          "internalType": "address",
          "name": "operator",
          "type": "address"
        },
        {
          "internalType": "bool",
          "name": "approved",
          "type": "bool"
        }
      ],
      "name": "setApprovalForAll",
      "outputs": [],
      "stateMutability": "nonpayable",
      "type": "function"
    },
    {
      "inputs": [
        {
          "internalType": "bytes4",
          "name": "interfaceId",
          "type": "bytes4"
        }
      ],
      "name": "supportsInterface",
      "outputs": [
        {
          "internalType": "bool",
          "name": "",
          "type": "bool"
        }
      ],
      "stateMutability": "view",
      "type": "function"
    },
    {
      "inputs": [],
      "name": "symbol",
      "outputs": [
        {
          "internalType": "string",
          "name": "",
          "type": "string"
        }
      ],
      "stateMutability": "view",
      "type": "function"
    },
    {
      "inputs": [
        {
          "internalType": "uint256",
          "name": "tokenId",
          "type": "uint256"
        }
      ],
      "name": "tokenURI",
      "outputs": [
        {
          "internalType": "string",
          "name": "",
          "type": "string"
        }
      ],
      "stateMutability": "view",
      "type": "function"
    },
    {
      "inputs": [
        {
          "internalType": "address",
          "name": "from",
          "type": "address"
        },
        {
          "internalType": "address",
          "name": "to",
          "type": "address"
        },
        {
          "internalType": "uint256",
          "name": "tokenId",
          "type": "uint256"
        }
      ],
      "name": "transferFrom",
      "outputs": [],
      "stateMutability": "nonpayable",
      "type": "function"
    },
    {
      "inputs": [
        {
          "internalType": "address",
          "name": "_to",
          "type": "address"
        },
        {
          "internalType": "string",
          "name": "_name",
          "type": "string"
        },
        {
          "internalType": "string",
          "name": "_url",
          "type": "string"
        }
      ],
      "name": "mint",
      "outputs": [],
      "stateMutability": "nonpayable",
      "type": "function"
    }
  ],
  "bytecode": "0x60806040523480156200001157600080fd5b506040516200306638038062003066833981810160405281019062000037919062000204565b818181600090816200004a9190620004d4565b5080600190816200005c9190620004d4565b5050505050620005bb565b6000604051905090565b600080fd5b600080fd5b600080fd5b600080fd5b6000601f19601f8301169050919050565b7f4e487b7100000000000000000000000000000000000000000000000000000000600052604160045260246000fd5b620000d08262000085565b810181811067ffffffffffffffff82111715620000f257620000f162000096565b5b80604052505050565b60006200010762000067565b9050620001158282620000c5565b919050565b600067ffffffffffffffff82111562000138576200013762000096565b5b620001438262000085565b9050602081019050919050565b60005b838110156200017057808201518184015260208101905062000153565b8381111562000180576000848401525b50505050565b60006200019d62000197846200011a565b620000fb565b905082815260208101848484011115620001bc57620001bb62000080565b5b620001c984828562000150565b509392505050565b600082601f830112620001e957620001e86200007b565b5b8151620001fb84826020860162000186565b91505092915050565b600080604083850312156200021e576200021d62000071565b5b600083015167ffffffffffffffff8111156200023f576200023e62000076565b5b6200024d85828601620001d1565b925050602083015167ffffffffffffffff81111562000271576200027062000076565b5b6200027f85828601620001d1565b9150509250929050565b600081519050919050565b7f4e487b7100000000000000000000000000000000000000000000000000000000600052602260045260246000fd5b60006002820490506001821680620002dc57607f821691505b602082108103620002f257620002f162000294565b5b50919050565b60008190508160005260206000209050919050565b60006020601f8301049050919050565b600082821b905092915050565b6000600883026200035c7fffffffffffffffffffffffffffffffffffffffffffffffffffffffffffffffff826200031d565b6200036886836200031d565b95508019841693508086168417925050509392505050565b6000819050919050565b6000819050919050565b6000620003b5620003af620003a98462000380565b6200038a565b62000380565b9050919050565b6000819050919050565b620003d18362000394565b620003e9620003e082620003bc565b8484546200032a565b825550505050565b600090565b62000400620003f1565b6200040d818484620003c6565b505050565b5b81811015620004355762000429600082620003f6565b60018101905062000413565b5050565b601f82111562000484576200044e81620002f8565b62000459846200030d565b8101602085101562000469578190505b6200048162000478856200030d565b83018262000412565b50505b505050565b600082821c905092915050565b6000620004a96000198460080262000489565b1980831691505092915050565b6000620004c4838362000496565b9150826002028217905092915050565b620004df8262000289565b67ffffffffffffffff811115620004fb57620004fa62000096565b5b620005078254620002c3565b6200051482828562000439565b600060209050601f8311600181146200054c576000841562000537578287015190505b620005438582620004b6565b865550620005b3565b601f1984166200055c86620002f8565b60005b8281101562000586578489015182556001820191506020850194506020810190506200055f565b86831015620005a65784890151620005a2601f89168262000496565b8355505b6001600288020188555050505b505050505050565b612a9b80620005cb6000396000f3fe608060405234801561001057600080fd5b50600436106100f55760003560e01c806370a0823111610097578063a22cb46511610066578063a22cb46514610297578063b88d4fde146102b3578063c87b56dd146102cf578063e985e9c5146102ff576100f5565b806370a08231146101fc578063848564821461022c57806395d89b411461025d578063990711901461027b576100f5565b8063095ea7b3116100d3578063095ea7b31461017857806323b872dd1461019457806342842e0e146101b05780636352211e146101cc576100f5565b806301ffc9a7146100fa57806306fdde031461012a578063081812fc14610148575b600080fd5b610114600480360381019061010f919061181b565b61032f565b6040516101219190611863565b60405180910390f35b610132610411565b60405161013f9190611917565b60405180910390f35b610162600480360381019061015d919061196f565b6104a3565b60405161016f91906119dd565b60405180910390f35b610192600480360381019061018d9190611a24565b6104e9565b005b6101ae60048036038101906101a99190611a64565b610600565b005b6101ca60048036038101906101c59190611a64565b610660565b005b6101e660048036038101906101e1919061196f565b610680565b6040516101f391906119dd565b60405180910390f35b61021660048036038101906102119190611ab7565b610731565b6040516102239190611af3565b60405180910390f35b6102466004803603810190610241919061196f565b6107e8565b604051610254929190611b0e565b60405180910390f35b61026561092c565b6040516102729190611917565b60405180910390f35b61029560048036038101906102909190611c7a565b6109be565b005b6102b160048036038101906102ac9190611d31565b610a92565b005b6102cd60048036038101906102c89190611e12565b610aa8565b005b6102e960048036038101906102e4919061196f565b610b0a565b6040516102f69190611917565b60405180910390f35b61031960048036038101906103149190611e95565b610b72565b6040516103269190611863565b60405180910390f35b60007f80ac58cd000000000000000000000000000000000000000000000000000000007bffffffffffffffffffffffffffffffffffffffffffffffffffffffff1916827bffffffffffffffffffffffffffffffffffffffffffffffffffffffff191614806103fa57507f5b5e139f000000000000000000000000000000000000000000000000000000007bffffffffffffffffffffffffffffffffffffffffffffffffffffffff1916827bffffffffffffffffffffffffffffffffffffffffffffffffffffffff1916145b8061040a575061040982610c06565b5b9050919050565b60606000805461042090611f04565b80601f016020809104026020016040519081016040528092919081815260200182805461044c90611f04565b80156104995780601f1061046e57610100808354040283529160200191610499565b820191906000526020600020905b81548152906001019060200180831161047c57829003601f168201915b5050505050905090565b60006104ae82610c70565b6004600083815260200190815260200160002060009054906101000a900473ffffffffffffffffffffffffffffffffffffffff169050919050565b60006104f482610680565b90508073ffffffffffffffffffffffffffffffffffffffff168373ffffffffffffffffffffffffffffffffffffffff1603610564576040517f08c379a000000000000000000000000000000000000000000000000000000000815260040161055b90611fa7565b60405180910390fd5b8073ffffffffffffffffffffffffffffffffffffffff16610583610cbb565b73ffffffffffffffffffffffffffffffffffffffff1614806105b257506105b1816105ac610cbb565b610b72565b5b6105f1576040517f08c379a00000000000000000000000000000000000000000000000000000000081526004016105e890612039565b60405180910390fd5b6105fb8383610cc3565b505050565b61061161060b610cbb565b82610d7c565b610650576040517f08c379a0000000000000000000000000000000000000000000000000000000008152600401610647906120cb565b60405180910390fd5b61065b838383610e11565b505050565b61067b83838360405180602001604052806000815250610aa8565b505050565b6000806002600084815260200190815260200160002060009054906101000a900473ffffffffffffffffffffffffffffffffffffffff169050600073ffffffffffffffffffffffffffffffffffffffff168173ffffffffffffffffffffffffffffffffffffffff1603610728576040517f08c379a000000000000000000000000000000000000000000000000000000000815260040161071f90612137565b60405180910390fd5b80915050919050565b60008073ffffffffffffffffffffffffffffffffffffffff168273ffffffffffffffffffffffffffffffffffffffff16036107a1576040517f08c379a0000000000000000000000000000000000000000000000000000000008152600401610798906121c9565b60405180910390fd5b600360008373ffffffffffffffffffffffffffffffffffffffff1673ffffffffffffffffffffffffffffffffffffffff168152602001908152602001600020549050919050565b600681815481106107f857600080fd5b906000526020600020906002020160009150905080600001805461081b90611f04565b80601f016020809104026020016040519081016040528092919081815260200182805461084790611f04565b80156108945780601f1061086957610100808354040283529160200191610894565b820191906000526020600020905b81548152906001019060200180831161087757829003601f168201915b5050505050908060010180546108a990611f04565b80601f01602080910402602001604051908101604052809291908181526020018280546108d590611f04565b80156109225780601f106108f757610100808354040283529160200191610922565b820191906000526020600020905b81548152906001019060200180831161090557829003601f168201915b5050505050905082565b60606001805461093b90611f04565b80601f016020809104026020016040519081016040528092919081815260200182805461096790611f04565b80156109b45780601f10610989576101008083540402835291602001916109b4565b820191906000526020600020905b81548152906001019060200180831161099757829003601f168201915b5050505050905090565b600073ffffffffffffffffffffffffffffffffffffffff168373ffffffffffffffffffffffffffffffffffffffff16036109f757600080fd5b60006006805490509050600660405180604001604052808581526020018481525090806001815401808255809150506001900390600052602060002090600202016000909190919091506000820151816000019081610a569190612395565b506020820151816001019081610a6c9190612395565b505050610a7881611077565b15610a8257600080fd5b610a8c84826110e3565b50505050565b610aa4610a9d610cbb565b83836112bc565b5050565b610ab9610ab3610cbb565b83610d7c565b610af8576040517f08c379a0000000000000000000000000000000000000000000000000000000008152600401610aef906120cb565b60405180910390fd5b610b0484848484611428565b50505050565b6060610b1582610c70565b6000610b1f611484565b90506000815111610b3f5760405180602001604052806000815250610b6a565b80610b498461149b565b604051602001610b5a9291906124a3565b6040516020818303038152906040525b915050919050565b6000600560008473ffffffffffffffffffffffffffffffffffffffff1673ffffffffffffffffffffffffffffffffffffffff16815260200190815260200160002060008373ffffffffffffffffffffffffffffffffffffffff1673ffffffffffffffffffffffffffffffffffffffff16815260200190815260200160002060009054906101000a900460ff16905092915050565b60007f01ffc9a7000000000000000000000000000000000000000000000000000000007bffffffffffffffffffffffffffffffffffffffffffffffffffffffff1916827bffffffffffffffffffffffffffffffffffffffffffffffffffffffff1916149050919050565b610c7981611077565b610cb8576040517f08c379a0000000000000000000000000000000000000000000000000000000008152600401610caf90612137565b60405180910390fd5b50565b600033905090565b816004600083815260200190815260200160002060006101000a81548173ffffffffffffffffffffffffffffffffffffffff021916908373ffffffffffffffffffffffffffffffffffffffff160217905550808273ffffffffffffffffffffffffffffffffffffffff16610d3683610680565b73ffffffffffffffffffffffffffffffffffffffff167f8c5be1e5ebec7d5bd14f71427d1e84f3dd0314c0f7b2291e5b200ac8c7c3b92560405160405180910390a45050565b600080610d8883610680565b90508073ffffffffffffffffffffffffffffffffffffffff168473ffffffffffffffffffffffffffffffffffffffff161480610dca5750610dc98185610b72565b5b80610e0857508373ffffffffffffffffffffffffffffffffffffffff16610df0846104a3565b73ffffffffffffffffffffffffffffffffffffffff16145b91505092915050565b8273ffffffffffffffffffffffffffffffffffffffff16610e3182610680565b73ffffffffffffffffffffffffffffffffffffffff1614610e87576040517f08c379a0000000000000000000000000000000000000000000000000000000008152600401610e7e90612539565b60405180910390fd5b600073ffffffffffffffffffffffffffffffffffffffff168273ffffffffffffffffffffffffffffffffffffffff1603610ef6576040517f08c379a0000000000000000000000000000000000000000000000000000000008152600401610eed906125cb565b60405180910390fd5b610f018383836115fb565b610f0c600082610cc3565b6001600360008573ffffffffffffffffffffffffffffffffffffffff1673ffffffffffffffffffffffffffffffffffffffff1681526020019081526020016000206000828254610f5c919061261a565b925050819055506001600360008473ffffffffffffffffffffffffffffffffffffffff1673ffffffffffffffffffffffffffffffffffffffff1681526020019081526020016000206000828254610fb3919061264e565b92505081905550816002600083815260200190815260200160002060006101000a81548173ffffffffffffffffffffffffffffffffffffffff021916908373ffffffffffffffffffffffffffffffffffffffff160217905550808273ffffffffffffffffffffffffffffffffffffffff168473ffffffffffffffffffffffffffffffffffffffff167fddf252ad1be2c89b69c2b068fc378daa952ba7f163c4a11628f55a4df523b3ef60405160405180910390a4611072838383611600565b505050565b60008073ffffffffffffffffffffffffffffffffffffffff166002600084815260200190815260200160002060009054906101000a900473ffffffffffffffffffffffffffffffffffffffff1673ffffffffffffffffffffffffffffffffffffffff1614159050919050565b600073ffffffffffffffffffffffffffffffffffffffff168273ffffffffffffffffffffffffffffffffffffffff1603611152576040517f08c379a0000000000000000000000000000000000000000000000000000000008152600401611149906126f0565b60405180910390fd5b61115b81611077565b1561119b576040517f08c379a00000000000000000000000000000000000000000000000000000000081526004016111929061275c565b60405180910390fd5b6111a7600083836115fb565b6001600360008473ffffffffffffffffffffffffffffffffffffffff1673ffffffffffffffffffffffffffffffffffffffff16815260200190815260200160002060008282546111f7919061264e565b92505081905550816002600083815260200190815260200160002060006101000a81548173ffffffffffffffffffffffffffffffffffffffff021916908373ffffffffffffffffffffffffffffffffffffffff160217905550808273ffffffffffffffffffffffffffffffffffffffff16600073ffffffffffffffffffffffffffffffffffffffff167fddf252ad1be2c89b69c2b068fc378daa952ba7f163c4a11628f55a4df523b3ef60405160405180910390a46112b860008383611600565b5050565b8173ffffffffffffffffffffffffffffffffffffffff168373ffffffffffffffffffffffffffffffffffffffff160361132a576040517f08c379a0000000000000000000000000000000000000000000000000000000008152600401611321906127c8565b60405180910390fd5b80600560008573ffffffffffffffffffffffffffffffffffffffff1673ffffffffffffffffffffffffffffffffffffffff16815260200190815260200160002060008473ffffffffffffffffffffffffffffffffffffffff1673ffffffffffffffffffffffffffffffffffffffff16815260200190815260200160002060006101000a81548160ff0219169083151502179055508173ffffffffffffffffffffffffffffffffffffffff168373ffffffffffffffffffffffffffffffffffffffff167f17307eab39ab6107e8899845ad3d59bd9653f200f220920489ca2b5937696c318360405161141b9190611863565b60405180910390a3505050565b611433848484610e11565b61143f84848484611605565b61147e576040517f08c379a00000000000000000000000000000000000000000000000000000000081526004016114759061285a565b60405180910390fd5b50505050565b606060405180602001604052806000815250905090565b6060600082036114e2576040518060400160405280600181526020017f300000000000000000000000000000000000000000000000000000000000000081525090506115f6565b600082905060005b600082146115145780806114fd9061287a565b915050600a8261150d91906128f1565b91506114ea565b60008167ffffffffffffffff8111156115305761152f611b4f565b5b6040519080825280601f01601f1916602001820160405280156115625781602001600182028036833780820191505090505b5090505b600085146115ef5760018261157b919061261a565b9150600a8561158a9190612922565b6030611596919061264e565b60f81b8183815181106115ac576115ab612953565b5b60200101907effffffffffffffffffffffffffffffffffffffffffffffffffffffffffffff1916908160001a905350600a856115e891906128f1565b9450611566565b8093505050505b919050565b505050565b505050565b60006116268473ffffffffffffffffffffffffffffffffffffffff1661178c565b1561177f578373ffffffffffffffffffffffffffffffffffffffff1663150b7a0261164f610cbb565b8786866040518563ffffffff1660e01b815260040161167194939291906129d7565b6020604051808303816000875af19250505080156116ad57506040513d601f19601f820116820180604052508101906116aa9190612a38565b60015b61172f573d80600081146116dd576040519150601f19603f3d011682016040523d82523d6000602084013e6116e2565b606091505b506000815103611727576040517f08c379a000000000000000000000000000000000000000000000000000000000815260040161171e9061285a565b60405180910390fd5b805181602001fd5b63150b7a0260e01b7bffffffffffffffffffffffffffffffffffffffffffffffffffffffff1916817bffffffffffffffffffffffffffffffffffffffffffffffffffffffff191614915050611784565b600190505b949350505050565b6000808273ffffffffffffffffffffffffffffffffffffffff163b119050919050565b6000604051905090565b600080fd5b600080fd5b60007fffffffff0000000000000000000000000000000000000000000000000000000082169050919050565b6117f8816117c3565b811461180357600080fd5b50565b600081359050611815816117ef565b92915050565b600060208284031215611831576118306117b9565b5b600061183f84828501611806565b91505092915050565b60008115159050919050565b61185d81611848565b82525050565b60006020820190506118786000830184611854565b92915050565b600081519050919050565b600082825260208201905092915050565b60005b838110156118b857808201518184015260208101905061189d565b838111156118c7576000848401525b50505050565b6000601f19601f8301169050919050565b60006118e98261187e565b6118f38185611889565b935061190381856020860161189a565b61190c816118cd565b840191505092915050565b6000602082019050818103600083015261193181846118de565b905092915050565b6000819050919050565b61194c81611939565b811461195757600080fd5b50565b60008135905061196981611943565b92915050565b600060208284031215611985576119846117b9565b5b60006119938482850161195a565b91505092915050565b600073ffffffffffffffffffffffffffffffffffffffff82169050919050565b60006119c78261199c565b9050919050565b6119d7816119bc565b82525050565b60006020820190506119f260008301846119ce565b92915050565b611a01816119bc565b8114611a0c57600080fd5b50565b600081359050611a1e816119f8565b92915050565b60008060408385031215611a3b57611a3a6117b9565b5b6000611a4985828601611a0f565b9250506020611a5a8582860161195a565b9150509250929050565b600080600060608486031215611a7d57611a7c6117b9565b5b6000611a8b86828701611a0f565b9350506020611a9c86828701611a0f565b9250506040611aad8682870161195a565b9150509250925092565b600060208284031215611acd57611acc6117b9565b5b6000611adb84828501611a0f565b91505092915050565b611aed81611939565b82525050565b6000602082019050611b086000830184611ae4565b92915050565b60006040820190508181036000830152611b2881856118de565b90508181036020830152611b3c81846118de565b90509392505050565b600080fd5b600080fd5b7f4e487b7100000000000000000000000000000000000000000000000000000000600052604160045260246000fd5b611b87826118cd565b810181811067ffffffffffffffff82111715611ba657611ba5611b4f565b5b80604052505050565b6000611bb96117af565b9050611bc58282611b7e565b919050565b600067ffffffffffffffff821115611be557611be4611b4f565b5b611bee826118cd565b9050602081019050919050565b82818337600083830152505050565b6000611c1d611c1884611bca565b611baf565b905082815260208101848484011115611c3957611c38611b4a565b5b611c44848285611bfb565b509392505050565b600082601f830112611c6157611c60611b45565b5b8135611c71848260208601611c0a565b91505092915050565b600080600060608486031215611c9357611c926117b9565b5b6000611ca186828701611a0f565b935050602084013567ffffffffffffffff811115611cc257611cc16117be565b5b611cce86828701611c4c565b925050604084013567ffffffffffffffff811115611cef57611cee6117be565b5b611cfb86828701611c4c565b9150509250925092565b611d0e81611848565b8114611d1957600080fd5b50565b600081359050611d2b81611d05565b92915050565b60008060408385031215611d4857611d476117b9565b5b6000611d5685828601611a0f565b9250506020611d6785828601611d1c565b9150509250929050565b600067ffffffffffffffff821115611d8c57611d8b611b4f565b5b611d95826118cd565b9050602081019050919050565b6000611db5611db084611d71565b611baf565b905082815260208101848484011115611dd157611dd0611b4a565b5b611ddc848285611bfb565b509392505050565b600082601f830112611df957611df8611b45565b5b8135611e09848260208601611da2565b91505092915050565b60008060008060808587031215611e2c57611e2b6117b9565b5b6000611e3a87828801611a0f565b9450506020611e4b87828801611a0f565b9350506040611e5c8782880161195a565b925050606085013567ffffffffffffffff811115611e7d57611e7c6117be565b5b611e8987828801611de4565b91505092959194509250565b60008060408385031215611eac57611eab6117b9565b5b6000611eba85828601611a0f565b9250506020611ecb85828601611a0f565b9150509250929050565b7f4e487b7100000000000000000000000000000000000000000000000000000000600052602260045260246000fd5b60006002820490506001821680611f1c57607f821691505b602082108103611f2f57611f2e611ed5565b5b50919050565b7f4552433732313a20617070726f76616c20746f2063757272656e74206f776e6560008201527f7200000000000000000000000000000000000000000000000000000000000000602082015250565b6000611f91602183611889565b9150611f9c82611f35565b604082019050919050565b60006020820190508181036000830152611fc081611f84565b9050919050565b7f4552433732313a20617070726f76652063616c6c6572206973206e6f7420746f60008201527f6b656e206f776e6572206e6f7220617070726f76656420666f7220616c6c0000602082015250565b6000612023603e83611889565b915061202e82611fc7565b604082019050919050565b6000602082019050818103600083015261205281612016565b9050919050565b7f4552433732313a2063616c6c6572206973206e6f7420746f6b656e206f776e6560008201527f72206e6f7220617070726f766564000000000000000000000000000000000000602082015250565b60006120b5602e83611889565b91506120c082612059565b604082019050919050565b600060208201905081810360008301526120e4816120a8565b9050919050565b7f4552433732313a20696e76616c696420746f6b656e2049440000000000000000600082015250565b6000612121601883611889565b915061212c826120eb565b602082019050919050565b6000602082019050818103600083015261215081612114565b9050919050565b7f4552433732313a2061646472657373207a65726f206973206e6f74206120766160008201527f6c6964206f776e65720000000000000000000000000000000000000000000000602082015250565b60006121b3602983611889565b91506121be82612157565b604082019050919050565b600060208201905081810360008301526121e2816121a6565b9050919050565b60008190508160005260206000209050919050565b60006020601f8301049050919050565b600082821b905092915050565b60006008830261224b7fffffffffffffffffffffffffffffffffffffffffffffffffffffffffffffffff8261220e565b612255868361220e565b95508019841693508086168417925050509392505050565b6000819050919050565b600061229261228d61228884611939565b61226d565b611939565b9050919050565b6000819050919050565b6122ac83612277565b6122c06122b882612299565b84845461221b565b825550505050565b600090565b6122d56122c8565b6122e08184846122a3565b505050565b5b81811015612304576122f96000826122cd565b6001810190506122e6565b5050565b601f8211156123495761231a816121e9565b612323846121fe565b81016020851015612332578190505b61234661233e856121fe565b8301826122e5565b50505b505050565b600082821c905092915050565b600061236c6000198460080261234e565b1980831691505092915050565b6000612385838361235b565b9150826002028217905092915050565b61239e8261187e565b67ffffffffffffffff8111156123b7576123b6611b4f565b5b6123c18254611f04565b6123cc828285612308565b600060209050601f8311600181146123ff57600084156123ed578287015190505b6123f78582612379565b86555061245f565b601f19841661240d866121e9565b60005b8281101561243557848901518255600182019150602085019450602081019050612410565b86831015612452578489015161244e601f89168261235b565b8355505b6001600288020188555050505b505050505050565b600081905092915050565b600061247d8261187e565b6124878185612467565b935061249781856020860161189a565b80840191505092915050565b60006124af8285612472565b91506124bb8284612472565b91508190509392505050565b7f4552433732313a207472616e736665722066726f6d20696e636f72726563742060008201527f6f776e6572000000000000000000000000000000000000000000000000000000602082015250565b6000612523602583611889565b915061252e826124c7565b604082019050919050565b6000602082019050818103600083015261255281612516565b9050919050565b7f4552433732313a207472616e7366657220746f20746865207a65726f2061646460008201527f7265737300000000000000000000000000000000000000000000000000000000602082015250565b60006125b5602483611889565b91506125c082612559565b604082019050919050565b600060208201905081810360008301526125e4816125a8565b9050919050565b7f4e487b7100000000000000000000000000000000000000000000000000000000600052601160045260246000fd5b600061262582611939565b915061263083611939565b925082821015612643576126426125eb565b5b828203905092915050565b600061265982611939565b915061266483611939565b9250827fffffffffffffffffffffffffffffffffffffffffffffffffffffffffffffffff03821115612699576126986125eb565b5b828201905092915050565b7f4552433732313a206d696e7420746f20746865207a65726f2061646472657373600082015250565b60006126da602083611889565b91506126e5826126a4565b602082019050919050565b60006020820190508181036000830152612709816126cd565b9050919050565b7f4552433732313a20746f6b656e20616c7265616479206d696e74656400000000600082015250565b6000612746601c83611889565b915061275182612710565b602082019050919050565b6000602082019050818103600083015261277581612739565b9050919050565b7f4552433732313a20617070726f766520746f2063616c6c657200000000000000600082015250565b60006127b2601983611889565b91506127bd8261277c565b602082019050919050565b600060208201905081810360008301526127e1816127a5565b9050919050565b7f4552433732313a207472616e7366657220746f206e6f6e20455243373231526560008201527f63656976657220696d706c656d656e7465720000000000000000000000000000602082015250565b6000612844603283611889565b915061284f826127e8565b604082019050919050565b6000602082019050818103600083015261287381612837565b9050919050565b600061288582611939565b91507fffffffffffffffffffffffffffffffffffffffffffffffffffffffffffffffff82036128b7576128b66125eb565b5b600182019050919050565b7f4e487b7100000000000000000000000000000000000000000000000000000000600052601260045260246000fd5b60006128fc82611939565b915061290783611939565b925082612917576129166128c2565b5b828204905092915050565b600061292d82611939565b915061293883611939565b925082612948576129476128c2565b5b828206905092915050565b7f4e487b7100000000000000000000000000000000000000000000000000000000600052603260045260246000fd5b600081519050919050565b600082825260208201905092915050565b60006129a982612982565b6129b3818561298d565b93506129c381856020860161189a565b6129cc816118cd565b840191505092915050565b60006080820190506129ec60008301876119ce565b6129f960208301866119ce565b612a066040830185611ae4565b8181036060830152612a18818461299e565b905095945050505050565b600081519050612a32816117ef565b92915050565b600060208284031215612a4e57612a4d6117b9565b5b6000612a5c84828501612a23565b9150509291505056fea2646970667358221220248aa256a31b1083f9bcef3cb6a1fd7cfce45cba1b8f35ae09d2714f12569fd164736f6c634300080f0033",
  "immutableReferences": {},
  "source": "//SPDX-License-Identifier: UNLICENSED\npragma solidity ^0.8.7;\nimport \"@openzeppelin/contracts/token/ERC721/ERC721.sol\";\nimport \"@openzeppelin/contracts/utils/Counters.sol\";\nimport \"@openzeppelin/contracts/access/Ownable.sol\";\nimport \"@openzeppelin/contracts/token/ERC721/extensions/ERC721URIStorage.sol\";\n\ncontract ImageNFT is ERC721{\n    struct Image {\n        string name;\n        string url;\n    }\n    Image[] public images;\n\n    constructor\n    (string memory _name, string memory _symbol) ERC721\n    (_name, _symbol){\n    }\n    function mint(address _to, string memory _name, string memory _url) public{\n        require(_to != address(0));\n        uint _tokenId = images.length;\n        images.push(Image(_name,_url));\n        require(!_exists(_tokenId));\n        _mint(_to, _tokenId);\n    }\n}",
  "sourcePath": "/Users/bag-eunseong/Desktop/NFT_platform/nft_platform/nft_generator/contracts/ImageNFT.sol",
  "compiler": {
    "name": "solc",
    "version": "0.8.15+commit.e14f2714.Emscripten.clang"
  },
  "schemaVersion": "3.4.8",
  "updatedAt": "2022-08-28T09:28:46.875Z",
  "devdoc": {
    "kind": "dev",
    "methods": {
      "approve(address,uint256)": {
        "details": "See {IERC721-approve}."
      },
      "balanceOf(address)": {
        "details": "See {IERC721-balanceOf}."
      },
      "getApproved(uint256)": {
        "details": "See {IERC721-getApproved}."
      },
      "isApprovedForAll(address,address)": {
        "details": "See {IERC721-isApprovedForAll}."
      },
      "name()": {
        "details": "See {IERC721Metadata-name}."
      },
      "ownerOf(uint256)": {
        "details": "See {IERC721-ownerOf}."
      },
      "safeTransferFrom(address,address,uint256)": {
        "details": "See {IERC721-safeTransferFrom}."
      },
      "safeTransferFrom(address,address,uint256,bytes)": {
        "details": "See {IERC721-safeTransferFrom}."
      },
      "setApprovalForAll(address,bool)": {
        "details": "See {IERC721-setApprovalForAll}."
      },
      "supportsInterface(bytes4)": {
        "details": "See {IERC165-supportsInterface}."
      },
      "symbol()": {
        "details": "See {IERC721Metadata-symbol}."
      },
      "tokenURI(uint256)": {
        "details": "See {IERC721Metadata-tokenURI}."
      },
      "transferFrom(address,address,uint256)": {
        "details": "See {IERC721-transferFrom}."
      }
    },
    "version": 1
  },
  "userdoc": {
    "kind": "user",
    "methods": {},
    "version": 1
  }
}